{
  "_format": "hh-sol-artifact-1",
  "contractName": "GamesCoin",
  "sourceName": "contracts/GamesCoin.sol",
  "abi": [
    {
      "inputs": [],
      "stateMutability": "nonpayable",
      "type": "constructor"
    },
    {
      "inputs": [
        {
          "internalType": "address",
          "name": "spender",
          "type": "address"
        },
        {
          "internalType": "uint256",
          "name": "allowance",
          "type": "uint256"
        },
        {
          "internalType": "uint256",
          "name": "needed",
          "type": "uint256"
        }
      ],
      "name": "ERC20InsufficientAllowance",
      "type": "error"
    },
    {
      "inputs": [
        {
          "internalType": "address",
          "name": "sender",
          "type": "address"
        },
        {
          "internalType": "uint256",
          "name": "balance",
          "type": "uint256"
        },
        {
          "internalType": "uint256",
          "name": "needed",
          "type": "uint256"
        }
      ],
      "name": "ERC20InsufficientBalance",
      "type": "error"
    },
    {
      "inputs": [
        {
          "internalType": "address",
          "name": "approver",
          "type": "address"
        }
      ],
      "name": "ERC20InvalidApprover",
      "type": "error"
    },
    {
      "inputs": [
        {
          "internalType": "address",
          "name": "receiver",
          "type": "address"
        }
      ],
      "name": "ERC20InvalidReceiver",
      "type": "error"
    },
    {
      "inputs": [
        {
          "internalType": "address",
          "name": "sender",
          "type": "address"
        }
      ],
      "name": "ERC20InvalidSender",
      "type": "error"
    },
    {
      "inputs": [
        {
          "internalType": "address",
          "name": "spender",
          "type": "address"
        }
      ],
      "name": "ERC20InvalidSpender",
      "type": "error"
    },
    {
      "inputs": [
        {
          "internalType": "address",
          "name": "owner",
          "type": "address"
        }
      ],
      "name": "OwnableInvalidOwner",
      "type": "error"
    },
    {
      "inputs": [],
      "name": "OwnableNotOwner",
      "type": "error"
    },
    {
      "inputs": [
        {
          "internalType": "address",
          "name": "account",
          "type": "address"
        }
      ],
      "name": "OwnableUnauthorizedAccount",
      "type": "error"
    },
    {
      "anonymous": false,
      "inputs": [
        {
          "indexed": true,
          "internalType": "address",
          "name": "owner",
          "type": "address"
        },
        {
          "indexed": true,
          "internalType": "address",
          "name": "spender",
          "type": "address"
        },
        {
          "indexed": false,
          "internalType": "uint256",
          "name": "value",
          "type": "uint256"
        }
      ],
      "name": "Approval",
      "type": "event"
    },
    {
      "anonymous": false,
      "inputs": [
        {
          "indexed": true,
          "internalType": "address",
          "name": "previousOwner",
          "type": "address"
        },
        {
          "indexed": true,
          "internalType": "address",
          "name": "newOwner",
          "type": "address"
        }
      ],
      "name": "OwnershipTransferred",
      "type": "event"
    },
    {
      "anonymous": false,
      "inputs": [
        {
          "indexed": true,
          "internalType": "address",
          "name": "from",
          "type": "address"
        },
        {
          "indexed": true,
          "internalType": "address",
          "name": "to",
          "type": "address"
        },
        {
          "indexed": false,
          "internalType": "uint256",
          "name": "value",
          "type": "uint256"
        }
      ],
      "name": "Transfer",
      "type": "event"
    },
    {
      "inputs": [
        {
          "internalType": "address",
          "name": "owner",
          "type": "address"
        },
        {
          "internalType": "address",
          "name": "spender",
          "type": "address"
        }
      ],
      "name": "allowance",
      "outputs": [
        {
          "internalType": "uint256",
          "name": "",
          "type": "uint256"
        }
      ],
      "stateMutability": "view",
      "type": "function"
    },
    {
      "inputs": [
        {
          "internalType": "address",
          "name": "spender",
          "type": "address"
        },
        {
          "internalType": "uint256",
          "name": "value",
          "type": "uint256"
        }
      ],
      "name": "approve",
      "outputs": [
        {
          "internalType": "bool",
          "name": "",
          "type": "bool"
        }
      ],
      "stateMutability": "nonpayable",
      "type": "function"
    },
    {
      "inputs": [
        {
          "internalType": "address",
          "name": "account",
          "type": "address"
        }
      ],
      "name": "balanceOf",
      "outputs": [
        {
          "internalType": "uint256",
          "name": "",
          "type": "uint256"
        }
      ],
      "stateMutability": "view",
      "type": "function"
    },
    {
      "inputs": [
        {
          "internalType": "uint256",
          "name": "amount",
          "type": "uint256"
        }
      ],
      "name": "burn",
      "outputs": [],
      "stateMutability": "nonpayable",
      "type": "function"
    },
    {
      "inputs": [
        {
          "internalType": "address",
          "name": "account",
          "type": "address"
        },
        {
          "internalType": "uint256",
          "name": "amount",
          "type": "uint256"
        }
      ],
      "name": "burnFrom",
      "outputs": [],
      "stateMutability": "nonpayable",
      "type": "function"
    },
    {
      "inputs": [],
      "name": "decimals",
      "outputs": [
        {
          "internalType": "uint8",
          "name": "",
          "type": "uint8"
        }
      ],
      "stateMutability": "view",
      "type": "function"
    },
    {
      "inputs": [],
      "name": "name",
      "outputs": [
        {
          "internalType": "string",
          "name": "",
          "type": "string"
        }
      ],
      "stateMutability": "view",
      "type": "function"
    },
    {
      "inputs": [],
      "name": "owner",
      "outputs": [
        {
          "internalType": "address",
          "name": "",
          "type": "address"
        }
      ],
      "stateMutability": "view",
      "type": "function"
    },
    {
      "inputs": [],
      "name": "renounceOwnership",
      "outputs": [],
      "stateMutability": "nonpayable",
      "type": "function"
    },
    {
      "inputs": [
        {
          "internalType": "address",
          "name": "to",
          "type": "address"
        },
        {
          "internalType": "uint256",
          "name": "amount",
          "type": "uint256"
        }
      ],
      "name": "rewardPlayer",
      "outputs": [],
      "stateMutability": "nonpayable",
      "type": "function"
    },
    {
      "inputs": [],
      "name": "symbol",
      "outputs": [
        {
          "internalType": "string",
          "name": "",
          "type": "string"
        }
      ],
      "stateMutability": "view",
      "type": "function"
    },
    {
      "inputs": [],
      "name": "totalSupply",
      "outputs": [
        {
          "internalType": "uint256",
          "name": "",
          "type": "uint256"
        }
      ],
      "stateMutability": "view",
      "type": "function"
    },
    {
      "inputs": [
        {
          "internalType": "address",
          "name": "to",
          "type": "address"
        },
        {
          "internalType": "uint256",
          "name": "value",
          "type": "uint256"
        }
      ],
      "name": "transfer",
      "outputs": [
        {
          "internalType": "bool",
          "name": "",
          "type": "bool"
        }
      ],
      "stateMutability": "nonpayable",
      "type": "function"
    },
    {
      "inputs": [
        {
          "internalType": "address",
          "name": "from",
          "type": "address"
        },
        {
          "internalType": "address",
          "name": "to",
          "type": "address"
        },
        {
          "internalType": "uint256",
          "name": "value",
          "type": "uint256"
        }
      ],
      "name": "transferFrom",
      "outputs": [
        {
          "internalType": "bool",
          "name": "",
          "type": "bool"
        }
      ],
      "stateMutability": "nonpayable",
      "type": "function"
    },
    {
      "inputs": [
        {
          "internalType": "address",
          "name": "newOwner",
          "type": "address"
        }
      ],
      "name": "transferOwnership",
      "outputs": [],
      "stateMutability": "nonpayable",
      "type": "function"
    }
  ],
  "bytecode": "0x608060405234801561001057600080fd5b50336040518060400160405280600981526020017f47616d6573436f696e00000000000000000000000000000000000000000000008152506040518060400160405280600281526020017f4743000000000000000000000000000000000000000000000000000000000000815250816003908161008d9190610728565b50806004908161009d9190610728565b505050600073ffffffffffffffffffffffffffffffffffffffff168173ffffffffffffffffffffffffffffffffffffffff16036101125760006040517f1e4fbdf7000000000000000000000000000000000000000000000000000000008152600401610109919061083b565b60405180910390fd5b6101218161015c60201b60201c565b506101573361013461022260201b60201c565b600a61014091906109c5565b600061014c9190610a10565b61022b60201b60201c565b610ae7565b6000600560009054906101000a900473ffffffffffffffffffffffffffffffffffffffff16905081600560006101000a81548173ffffffffffffffffffffffffffffffffffffffff021916908373ffffffffffffffffffffffffffffffffffffffff1602179055508173ffffffffffffffffffffffffffffffffffffffff168173ffffffffffffffffffffffffffffffffffffffff167f8be0079c531659141344cd1fd0a4f28419497f9722a3daafe3b4186f6b6457e060405160405180910390a35050565b60006012905090565b600073ffffffffffffffffffffffffffffffffffffffff168273ffffffffffffffffffffffffffffffffffffffff160361029d5760006040517fec442f05000000000000000000000000000000000000000000000000000000008152600401610294919061083b565b60405180910390fd5b6102af600083836102b360201b60201c565b5050565b600073ffffffffffffffffffffffffffffffffffffffff168373ffffffffffffffffffffffffffffffffffffffff16036103055780600260008282546102f99190610a52565b925050819055506103d8565b60008060008573ffffffffffffffffffffffffffffffffffffffff1673ffffffffffffffffffffffffffffffffffffffff16815260200190815260200160002054905081811015610391578381836040517fe450d38c00000000000000000000000000000000000000000000000000000000815260040161038893929190610a95565b60405180910390fd5b8181036000808673ffffffffffffffffffffffffffffffffffffffff1673ffffffffffffffffffffffffffffffffffffffff16815260200190815260200160002081905550505b600073ffffffffffffffffffffffffffffffffffffffff168273ffffffffffffffffffffffffffffffffffffffff1603610421578060026000828254039250508190555061046e565b806000808473ffffffffffffffffffffffffffffffffffffffff1673ffffffffffffffffffffffffffffffffffffffff168152602001908152602001600020600082825401925050819055505b8173ffffffffffffffffffffffffffffffffffffffff168373ffffffffffffffffffffffffffffffffffffffff167fddf252ad1be2c89b69c2b068fc378daa952ba7f163c4a11628f55a4df523b3ef836040516104cb9190610acc565b60405180910390a3505050565b600081519050919050565b7f4e487b7100000000000000000000000000000000000000000000000000000000600052604160045260246000fd5b7f4e487b7100000000000000000000000000000000000000000000000000000000600052602260045260246000fd5b6000600282049050600182168061055957607f821691505b60208210810361056c5761056b610512565b5b50919050565b60008190508160005260206000209050919050565b60006020601f8301049050919050565b600082821b905092915050565b6000600883026105d47fffffffffffffffffffffffffffffffffffffffffffffffffffffffffffffffff82610597565b6105de8683610597565b95508019841693508086168417925050509392505050565b6000819050919050565b6000819050919050565b600061062561062061061b846105f6565b610600565b6105f6565b9050919050565b6000819050919050565b61063f8361060a565b61065361064b8261062c565b8484546105a4565b825550505050565b600090565b61066861065b565b610673818484610636565b505050565b5b818110156106975761068c600082610660565b600181019050610679565b5050565b601f8211156106dc576106ad81610572565b6106b684610587565b810160208510156106c5578190505b6106d96106d185610587565b830182610678565b50505b505050565b600082821c905092915050565b60006106ff600019846008026106e1565b1980831691505092915050565b600061071883836106ee565b9150826002028217905092915050565b610731826104d8565b67ffffffffffffffff81111561074a576107496104e3565b5b6107548254610541565b61075f82828561069b565b600060209050601f8311600181146107925760008415610780578287015190505b61078a858261070c565b8655506107f2565b601f1984166107a086610572565b60005b828110156107c8578489015182556001820191506020850194506020810190506107a3565b868310156107e557848901516107e1601f8916826106ee565b8355505b6001600288020188555050505b505050505050565b600073ffffffffffffffffffffffffffffffffffffffff82169050919050565b6000610825826107fa565b9050919050565b6108358161081a565b82525050565b6000602082019050610850600083018461082c565b92915050565b7f4e487b7100000000000000000000000000000000000000000000000000000000600052601160045260246000fd5b60008160011c9050919050565b6000808291508390505b60018511156108dc578086048111156108b8576108b7610856565b5b60018516156108c75780820291505b80810290506108d585610885565b945061089c565b94509492505050565b6000826108f557600190506109b1565b8161090357600090506109b1565b8160018114610919576002811461092357610952565b60019150506109b1565b60ff84111561093557610934610856565b5b8360020a91508482111561094c5761094b610856565b5b506109b1565b5060208310610133831016604e8410600b84101617156109875782820a90508381111561098257610981610856565b5b6109b1565b6109948484846001610892565b925090508184048111156109ab576109aa610856565b5b81810290505b9392505050565b600060ff82169050919050565b60006109d0826105f6565b91506109db836109b8565b9250610a087fffffffffffffffffffffffffffffffffffffffffffffffffffffffffffffffff84846108e5565b905092915050565b6000610a1b826105f6565b9150610a26836105f6565b9250828202610a34816105f6565b91508282048414831517610a4b57610a4a610856565b5b5092915050565b6000610a5d826105f6565b9150610a68836105f6565b9250828201905080821115610a8057610a7f610856565b5b92915050565b610a8f816105f6565b82525050565b6000606082019050610aaa600083018661082c565b610ab76020830185610a86565b610ac46040830184610a86565b949350505050565b6000602082019050610ae16000830184610a86565b92915050565b61146a80610af66000396000f3fe608060405234801561001057600080fd5b50600436106100f55760003560e01c806370a082311161009757806395d89b411161006657806395d89b4114610260578063a9059cbb1461027e578063dd62ed3e146102ae578063f2fde38b146102de576100f5565b806370a08231146101ec578063715018a61461021c57806379cc6790146102265780638da5cb5b14610242576100f5565b806323b872dd116100d357806323b872dd14610166578063313ce5671461019657806335f6ebc1146101b457806342966c68146101d0576100f5565b806306fdde03146100fa578063095ea7b31461011857806318160ddd14610148575b600080fd5b6101026102fa565b60405161010f9190610fcb565b60405180910390f35b610132600480360381019061012d9190611086565b61038c565b60405161013f91906110e1565b60405180910390f35b6101506103af565b60405161015d919061110b565b60405180910390f35b610180600480360381019061017b9190611126565b6103b9565b60405161018d91906110e1565b60405180910390f35b61019e6103e8565b6040516101ab9190611195565b60405180910390f35b6101ce60048036038101906101c99190611086565b6103f1565b005b6101ea60048036038101906101e591906111b0565b61046b565b005b610206600480360381019061020191906111dd565b61047f565b604051610213919061110b565b60405180910390f35b6102246104c7565b005b610240600480360381019061023b9190611086565b6104db565b005b61024a61055f565b6040516102579190611219565b60405180910390f35b610268610589565b6040516102759190610fcb565b60405180910390f35b61029860048036038101906102939190611086565b61061b565b6040516102a591906110e1565b60405180910390f35b6102c860048036038101906102c39190611234565b61063e565b6040516102d5919061110b565b60405180910390f35b6102f860048036038101906102f391906111dd565b6106c5565b005b606060038054610309906112a3565b80601f0160208091040260200160405190810160405280929190818152602001828054610335906112a3565b80156103825780601f1061035757610100808354040283529160200191610382565b820191906000526020600020905b81548152906001019060200180831161036557829003601f168201915b5050505050905090565b60008061039761074b565b90506103a4818585610753565b600191505092915050565b6000600254905090565b6000806103c461074b565b90506103d1858285610765565b6103dc8585856107fa565b60019150509392505050565b60006012905090565b6103f961055f565b73ffffffffffffffffffffffffffffffffffffffff163373ffffffffffffffffffffffffffffffffffffffff161461045d576040517f2ff9c9e800000000000000000000000000000000000000000000000000000000815260040160405180910390fd5b61046782826108ee565b5050565b61047c61047661074b565b82610970565b50565b60008060008373ffffffffffffffffffffffffffffffffffffffff1673ffffffffffffffffffffffffffffffffffffffff168152602001908152602001600020549050919050565b6104cf6109f2565b6104d96000610a79565b565b60006104ee836104e961074b565b61063e565b905081811015610533576040517f08c379a000000000000000000000000000000000000000000000000000000000815260040161052a90611346565b60405180910390fd5b6105508361053f61074b565b848461054b9190611395565b610753565b61055a8383610970565b505050565b6000600560009054906101000a900473ffffffffffffffffffffffffffffffffffffffff16905090565b606060048054610598906112a3565b80601f01602080910402602001604051908101604052809291908181526020018280546105c4906112a3565b80156106115780601f106105e657610100808354040283529160200191610611565b820191906000526020600020905b8154815290600101906020018083116105f457829003601f168201915b5050505050905090565b60008061062661074b565b90506106338185856107fa565b600191505092915050565b6000600160008473ffffffffffffffffffffffffffffffffffffffff1673ffffffffffffffffffffffffffffffffffffffff16815260200190815260200160002060008373ffffffffffffffffffffffffffffffffffffffff1673ffffffffffffffffffffffffffffffffffffffff16815260200190815260200160002054905092915050565b6106cd6109f2565b600073ffffffffffffffffffffffffffffffffffffffff168173ffffffffffffffffffffffffffffffffffffffff160361073f5760006040517f1e4fbdf70000000000000000000000000000000000000000000000000000000081526004016107369190611219565b60405180910390fd5b61074881610a79565b50565b600033905090565b6107608383836001610b3f565b505050565b6000610771848461063e565b90507fffffffffffffffffffffffffffffffffffffffffffffffffffffffffffffffff8110156107f457818110156107e4578281836040517ffb8f41b20000000000000000000000000000000000000000000000000000000081526004016107db939291906113c9565b60405180910390fd5b6107f384848484036000610b3f565b5b50505050565b600073ffffffffffffffffffffffffffffffffffffffff168373ffffffffffffffffffffffffffffffffffffffff160361086c5760006040517f96c6fd1e0000000000000000000000000000000000000000000000000000000081526004016108639190611219565b60405180910390fd5b600073ffffffffffffffffffffffffffffffffffffffff168273ffffffffffffffffffffffffffffffffffffffff16036108de5760006040517fec442f050000000000000000000000000000000000000000000000000000000081526004016108d59190611219565b60405180910390fd5b6108e9838383610d16565b505050565b600073ffffffffffffffffffffffffffffffffffffffff168273ffffffffffffffffffffffffffffffffffffffff16036109605760006040517fec442f050000000000000000000000000000000000000000000000000000000081526004016109579190611219565b60405180910390fd5b61096c60008383610d16565b5050565b600073ffffffffffffffffffffffffffffffffffffffff168273ffffffffffffffffffffffffffffffffffffffff16036109e25760006040517f96c6fd1e0000000000000000000000000000000000000000000000000000000081526004016109d99190611219565b60405180910390fd5b6109ee82600083610d16565b5050565b6109fa61074b565b73ffffffffffffffffffffffffffffffffffffffff16610a1861055f565b73ffffffffffffffffffffffffffffffffffffffff1614610a7757610a3b61074b565b6040517f118cdaa7000000000000000000000000000000000000000000000000000000008152600401610a6e9190611219565b60405180910390fd5b565b6000600560009054906101000a900473ffffffffffffffffffffffffffffffffffffffff16905081600560006101000a81548173ffffffffffffffffffffffffffffffffffffffff021916908373ffffffffffffffffffffffffffffffffffffffff1602179055508173ffffffffffffffffffffffffffffffffffffffff168173ffffffffffffffffffffffffffffffffffffffff167f8be0079c531659141344cd1fd0a4f28419497f9722a3daafe3b4186f6b6457e060405160405180910390a35050565b600073ffffffffffffffffffffffffffffffffffffffff168473ffffffffffffffffffffffffffffffffffffffff1603610bb15760006040517fe602df05000000000000000000000000000000000000000000000000000000008152600401610ba89190611219565b60405180910390fd5b600073ffffffffffffffffffffffffffffffffffffffff168373ffffffffffffffffffffffffffffffffffffffff1603610c235760006040517f94280d62000000000000000000000000000000000000000000000000000000008152600401610c1a9190611219565b60405180910390fd5b81600160008673ffffffffffffffffffffffffffffffffffffffff1673ffffffffffffffffffffffffffffffffffffffff16815260200190815260200160002060008573ffffffffffffffffffffffffffffffffffffffff1673ffffffffffffffffffffffffffffffffffffffff168152602001908152602001600020819055508015610d10578273ffffffffffffffffffffffffffffffffffffffff168473ffffffffffffffffffffffffffffffffffffffff167f8c5be1e5ebec7d5bd14f71427d1e84f3dd0314c0f7b2291e5b200ac8c7c3b92584604051610d07919061110b565b60405180910390a35b50505050565b600073ffffffffffffffffffffffffffffffffffffffff168373ffffffffffffffffffffffffffffffffffffffff1603610d68578060026000828254610d5c9190611400565b92505081905550610e3b565b60008060008573ffffffffffffffffffffffffffffffffffffffff1673ffffffffffffffffffffffffffffffffffffffff16815260200190815260200160002054905081811015610df4578381836040517fe450d38c000000000000000000000000000000000000000000000000000000008152600401610deb939291906113c9565b60405180910390fd5b8181036000808673ffffffffffffffffffffffffffffffffffffffff1673ffffffffffffffffffffffffffffffffffffffff16815260200190815260200160002081905550505b600073ffffffffffffffffffffffffffffffffffffffff168273ffffffffffffffffffffffffffffffffffffffff1603610e845780600260008282540392505081905550610ed1565b806000808473ffffffffffffffffffffffffffffffffffffffff1673ffffffffffffffffffffffffffffffffffffffff168152602001908152602001600020600082825401925050819055505b8173ffffffffffffffffffffffffffffffffffffffff168373ffffffffffffffffffffffffffffffffffffffff167fddf252ad1be2c89b69c2b068fc378daa952ba7f163c4a11628f55a4df523b3ef83604051610f2e919061110b565b60405180910390a3505050565b600081519050919050565b600082825260208201905092915050565b60005b83811015610f75578082015181840152602081019050610f5a565b60008484015250505050565b6000601f19601f8301169050919050565b6000610f9d82610f3b565b610fa78185610f46565b9350610fb7818560208601610f57565b610fc081610f81565b840191505092915050565b60006020820190508181036000830152610fe58184610f92565b905092915050565b600080fd5b600073ffffffffffffffffffffffffffffffffffffffff82169050919050565b600061101d82610ff2565b9050919050565b61102d81611012565b811461103857600080fd5b50565b60008135905061104a81611024565b92915050565b6000819050919050565b61106381611050565b811461106e57600080fd5b50565b6000813590506110808161105a565b92915050565b6000806040838503121561109d5761109c610fed565b5b60006110ab8582860161103b565b92505060206110bc85828601611071565b9150509250929050565b60008115159050919050565b6110db816110c6565b82525050565b60006020820190506110f660008301846110d2565b92915050565b61110581611050565b82525050565b600060208201905061112060008301846110fc565b92915050565b60008060006060848603121561113f5761113e610fed565b5b600061114d8682870161103b565b935050602061115e8682870161103b565b925050604061116f86828701611071565b9150509250925092565b600060ff82169050919050565b61118f81611179565b82525050565b60006020820190506111aa6000830184611186565b92915050565b6000602082840312156111c6576111c5610fed565b5b60006111d484828501611071565b91505092915050565b6000602082840312156111f3576111f2610fed565b5b60006112018482850161103b565b91505092915050565b61121381611012565b82525050565b600060208201905061122e600083018461120a565b92915050565b6000806040838503121561124b5761124a610fed565b5b60006112598582860161103b565b925050602061126a8582860161103b565b9150509250929050565b7f4e487b7100000000000000000000000000000000000000000000000000000000600052602260045260246000fd5b600060028204905060018216806112bb57607f821691505b6020821081036112ce576112cd611274565b5b50919050565b7f45524332303a206275726e20616d6f756e74206578636565647320616c6c6f7760008201527f616e636500000000000000000000000000000000000000000000000000000000602082015250565b6000611330602483610f46565b915061133b826112d4565b604082019050919050565b6000602082019050818103600083015261135f81611323565b9050919050565b7f4e487b7100000000000000000000000000000000000000000000000000000000600052601160045260246000fd5b60006113a082611050565b91506113ab83611050565b92508282039050818111156113c3576113c2611366565b5b92915050565b60006060820190506113de600083018661120a565b6113eb60208301856110fc565b6113f860408301846110fc565b949350505050565b600061140b82611050565b915061141683611050565b925082820190508082111561142e5761142d611366565b5b9291505056fea26469706673582212208dcc53711580268d893ddc009dde829139600cdb48099f38ee102ec84c1381e064736f6c634300081c0033",
  "linkReferences": {},
  "deployedLinkReferences": {}
}